:0300000002485E55
:0800F800FFFF4457494E543547
:10485E00759401759502758E0075930075C8707507
:10486E00C96075F80075F90175A80075B800759ADC
:10487E000075A90075B90053D0E7787FE4F6D8FD2E
:10488E009080007F007E80E4F0A3DFFCDEFA75816D
:04489E00200248DDCF
:1008C30044B8490000000048B84D0102030405067E
:0208D300070814
:1031D70090B46EEEF0A3EFF0A3EBF0A3EAF0A3E94F
:0131E700F0F7
:1031E800E490B475F0A3F0A3F0A3F0A3F0A3F0A3C8
:1031F800F0A3F090B473E0FAA3E0FB4A7003023343
:103208009690B46EE0FEA3E0FFC3E49FFFE49EFE49
:10321800E4FCFD90B47D12080AAF03AE02E4FCFDA5
:1032280090B47DE0F8A3E0F9A3E0FAA3E0FBC312B1
:103238000733501190B47DA3A3E0FFA3E090B473CB
:10324800CFF0A3EFF090B46EE0FCA3E0FDECC31365
:10325800FFED1390B475CFF0A3EFF0ED5401FFA389
:10326800E4F0A3EFF0C2AFE4F5F190B475E0FCA38D
:10327800E0FDECF5F28DF375F40175F8AF30FCFD67
:1032880090B477E07002A3E0603DD2FE20FEFD908E
:10329800B470E0FBA3E475F0011204F9A9F0FAE5B3
:1032A800FC12045A90B470E0FBA3E475F001120418
:1032B800F9A9F0FAE5FD12045A90B474E024FFF07D
:1032C80090B473E034FFF090B473E0FCA3E0FDEC3D
:1032D800C313FFED1390B479CFF0A3EFF0ED5401D1
:1032E800FFA3E4F0A3EFF090B47974FFF5F01204B3
:1032F800F945F0605BD2FE20FEFD90B470E0FBA3C0
:10330800E475F0011204F9A9F0FAE5FA12045A90EA
:10331800B470E0FBA3E475F0011204F9A9F0FAE532
:10332800FB12045A90B470E0FBA3E475F001120498
:10333800F9A9F0FAE5FC12045A90B470E0FBA3E492
:1033480075F0011204F9A9F0FAE5FD12045A809704
:1033580090B47BE07002A3E0602FD2FE20FEFD90C7
:10336800B470E0FBA3E475F0011204F9A9F0FAE5E2
:10337800FA12045A90B470E0FBA3E475F001120449
:0E338800F9A9F0FAE5FB12045AE4F5F8D2AF09
:013396002214
:103A2A0090B478EEF0A3EFF0A3EBF0A3EAF0A3E9E9
:013A3A00F09B
:103A3B00E490B47FF0A3F0A3F0A3F0A3F0A3F09075
:103A4B00B47DE07002A3E07003023BB890B478E061
:103A5B00FEA3E0FFC3E49FFFE49EFED390B47EE0A1
:103A6B009F90B47DE09E4005EEF0A3EFF090B4780C
:103A7B00E0FAA3E0FBEAC313FCEB13FDEB5401FFED
:103A8B0090B47FE4F0A3EFF0E4F5F1ECF5F2AF05C1
:103A9B008FF375F40175F88330FCFD90B47FE07003
:103AAB0002A3E0603D90B47AE0FBA3E475F0011251
:103ABB0004F9A9F0FA1203BBF5FC90B47AE0FBA36E
:103ACB00E475F0011204F9A9F0FA1203BBF5FDD26B
:103ADB00FE20FEFD90B47EE024FFF090B47DE03438
:103AEB00FFF090B47DE0FCA3E0FDECC313FFED13FE
:103AFB0090B481CFF0A3EFF0ED5401FFA3E4F0A35A
:103B0B00EFF075F88F90B48174FFF5F01204F9455E
:103B1B00F0605B90B47AE0FBA3E475F0011204F95A
:103B2B00A9F0FA1203BBF5FA90B47AE0FBA3E475A3
:103B3B00F0011204F9A9F0FA1203BBF5FB90B47A69
:103B4B00E0FBA3E475F0011204F9A9F0FA1203BB30
:103B5B00F5FC90B47AE0FBA3E475F0011204F9A92B
:103B6B00F0FA1203BBF5FDD2FE30FE9980FB90B448
:103B7B0083E07002A3E0603275F88C90B47AE0FBBE
:103B8B00A3E475F0011204F9A9F0FA1203BBF5FADC
:103B9B0090B47AE0FBA3E475F0011204F9A9F0FAF2
:0D3BAB001203BBF5FBD2FE20FEFDE4F5F891
:013BB80022EA
:0F45000090B598EBF0A3EAF0A3E9F0AD07AC0695
:10450F00EF5401FBECC313FCED13FDE4F5F1ECF5F7
:10451F00F2AF058FF375F40175F8AF30FCFDD39052
:10452F00B59CE0940090B59BE0940050030245E0E9
:10453F00D2FE20FEFDEB7049D390B59CE094009025
:10454F00B59BE09400403A90B598E0FBA3E475F07A
:10455F00011204F9A9F0FAE5FA12045A90B598E09D
:10456F00FBA3E475F0011204F9A9F0FAE5FB1204BC
:10457F005A7B0190B59CE024FFF090B59BE034FF8F
:10458F00F0EBB40199D390B59CE0940090B59BE00B
:10459F009400408A90B598E0FBA3E475F0011204F3
:1045AF00F9A9F0FAE5FC12045A90B598E0FBA3E4E0
:1045BF0075F0011204F9A9F0FAE5FD12045AE4FBB3
:1045CF0090B59CE024FFF090B59BE034FFF00245DE
:0445DF002DE4F5F8DA
:0145E30022B5
:0F2FF90090B59DEBF0A3EAF0A3E9F0AD07AC06AD
:10300800EF5401FBECC313FCED13FDE4F5F1ECF513
:10301800F2AF058FF375F40175F88F30FCFDEB60A6
:103028007B90B5A0E0FEA3E0FFD39400EE940040AF
:103038006BEF64014E702575F88290B59DE0FBA397
:10304800E475F0011204F9A9F0FA1203BBF5FCD2F9
:10305800FE20FEFD90B5A1E024FF803875F883902E
:10306800B59DE0FBA3E475F0011204F9A9F0FA128A
:1030780003BBF5FC90B59DE0FBA3E475F0011204D9
:10308800F9A9F0FA1203BBF5FDD2FE20FEFD90B5BA
:10309800A1E024FEF090B5A0E034FFF075F88F9021
:1030A800B5A0E0FEA3E0FFC39404EE94004069904D
:1030B800B59DE0FBA3E475F0011204F9A9F0FA123A
:1030C80003BBF5FA90B59DE0FBA3E475F00112048B
:1030D800F9A9F0FA1203BBF5FB90B59DE0FBA3E458
:1030E80075F0011204F9A9F0FA1203BBF5FC90B5CA
:1030F8009DE0FBA3E475F0011204F9A9F0FA1203AC
:10310800BBF5FDD2FE20FEFD90B5A1E024FCF090B9
:10311800B5A0E034FFF08087EF64034E704975F87E
:103128008E90B59DE0FBA3E475F0011204F9A9F0B7
:10313800FA1203BBF5FA90B59DE0FBA3E475F00124
:103148001204F9A9F0FA1203BBF5FB90B59DE0FB58
:10315800A3E475F0011204F9A9F0FA1203BBF5FC17
:10316800D2FE30FE6680FB90B5A0E0FEA3E0FF64CF
:10317800024E703475F88C90B59DE0FBA3E475F0B1
:10318800011204F9A9F0FA1203BBF5FA90B59DE013
:10319800FBA3E475F0011204F9A9F0FA1203BBF5D8
:1031A800FBD2FE30FE2580FBEF64014E701D75F8E2
:1031B8008890B59DE0FBA3E475F0011204F9A9F02D
:0E31C800FA1203BBF5FAD2FE20FEFDE4F5F884
:0131D60022D6
:105C5400EF4E6010E4FD0DEDC3943240F9EF1F7078
:045C6400EF1E80ECC3
:015C68002219
:1042FF0090B83DE0FB90B883F090B83EE0FCA3E0AF
:10430F00FDA3E0FEA3E0FF781012074490B884EFFE
:10431F00F090B83EE0FCA3E0FDA3E0FEA3E0FF7841
:10432F000812074490B885EFF090B83EA3A3A3E01E
:10433F0090B886F090B842E0FCA3E0FDEC90B8870F
:10434F00F0A3EDF090B844E0FCA3E0FDEC90B88949
:10435F00F0A3EDF0EBB4A52890B846E0FBA3E0FA8C
:10436F00A3E04A4B601A90B842E0FEA3E0FF90B87A
:10437F0046A3A3E0F990B47DECF0A3EDF0123A2A36
:10438F007B017AB8798390B47DE4F0A37404F07F55
:10439F00087E00123A2A7FF47E01125C547B017A68
:1043AF00B8798390B473E4F0A304F07F087E001211
:1043BF0031D790B883E070DE90B83DE0B45A2F90BB
:1043CF00B846E0FBA3E0FAA3E04A4B602190B84265
:1043DF00E0FEA3E0FF90B846A3A3E0F990B844E055
:1043EF00FDA3E090B473CDF0A3EDF01231D77F327F
:0543FF007E0002587E63
:0850480090B88BEEF0A3EFF02D
:10505000A3745AF0A37401F090B88BE0FCA3E0FDB8
:10506000EC90B88FF0A3EDF07B017AB8798D90B415
:105070007DE4F0A37402F07F847E00123A2A7FF46C
:105080007E01125C547B017AB8798D90B473E4F0A0
:10509000A37402F07F147E001231D790B88BE0FE2B
:1050A000A3E0FFA3E0B506D6A3E0B507D1E490B82E
:1050B0008DF0A3F0A3F0A3F07B017AB8798D90B4C2
:0D50C0007DF0A37402F07F167E00023A2AF4
:08587E0090B8D6EEF0A3EFF0A4
:10588600E4A3F0A3F090B8D6E0FEA3E0FFC390B87F
:10589600D9E09F90B8D8E09E5025E4FBFA7F017EC0
:1058A60000125C540BBB00010ABA01F1BB2CEE904E
:0F58B600B8D9E004F070CE90B8D8E004F080C606
:0158C50022C0
:1058C600EF14601814602314602E24037039A805A1
:1058D6007401088002C333D8FC42B722A8057401BC
:1058E600088002C333D8FC42BC22A8057401088094
:1058F60002C333D8FC42BD22AF05A8077401088055
:0859060002C333D8FC42BE22AB
:10579A00EF1460191460251460312403703DA805C4
:1057AA007401088002C333D8FCF452B722A80574E6
:1057BA0001088002C333D8FCF452BC22A805740144
:1057CA00088002C333D8FCF452BD22AF05A807747F
:0C57DA0001088002C333D8FCF452BE2248
:104CE800EF14602D14604A14606724036003024DBA
:104CF8007AEB600EA8057401088002C333D8FC4221
:104D08008022A8057401088002C333D8FCF45280BD
:104D180022EB600EA8057401088002C333D8FC4258
:104D28009022A8057401088002C333D8FCF452907D
:104D380022EB600EA8057401088002C333D8FC4238
:104D4800A022A8057401088002C333D8FCF452A03D
:104D580022EB600EA8057401088002C333D8FC4218
:104D6800B022AF05A8077401088002C333D8FCF449
:034D780052B02214
:10564E00EF14601A14602714603424037042A80506
:10565E007401088002C333D8FC5580FE8034A8053F
:10566E007401088002C333D8FC5590FE8024A8052F
:10567E007401088002C333D8FC55A0FE8014AF0518
:10568E00A8077401088002C333D8FC55B0FE80020F
:04569E00E4FEAF0671
:0156A20022E5
:0B277B0090B876EBF0A3EAF0A3E9F0C1
:1027860012076AE4FBFA7902F8D312073350030200
:1027960029CD90B876E0FBA3E0FAA3E0F990000417
:1027A60012078AE4FBFA7902F8D3120733500302C0
:1027B60029CD90B876E0FBA3E0FAA3E0F9900008F3
:1027C60012053AFFAEF0E4FCFD1207BAEF2BFFEE5E
:1027D6003AFEED39FDEC38FCE4FBFA7902F8D31247
:1027E600073350030229CD90B876E0FBA3E0FAA3A5
:1027F600E0F990000812053AFFAEF0E4FCFD900007
:10280600041207DAEF2BFFEE3AFEED39FDEC38FC49
:10281600E4FBFA7902F8D312073350030229CD906C
:10282600B876E0FBA3E0FAA3E0F990000412078A69
:102836001207BAD312073390B876E0FBA3E0FAA3E7
:10284600E0F990000440231207DAC000C001C0027C
:10285600C00390B876E0FBA3E0FAA3E0F912076A9A
:10286600D003D002D001D000800612078A1207BA20
:10287600C3EF9BFFEE9AFEED99FDEC98FC90B879BC
:1028860012080A90B876E0FBA3E0FAA3E0F99000FC
:102896000812053AFFAEF0E4FCFD90B879E0F8A323
:1028A600E0F9A3E0FAA3E0FBC312073350030229C1
:1028B600CD90B876E0FBA3E0FAA3E0F912076A78B8
:1028C6000112074490B87DEEF0A3EFF090000412D9
:1028D600078A780112074490B87FEEF0A3EFF090D4
:1028E600000812053AFFE5F0C313FEEF13FF90B898
:1028F60081EEF0A3EFF0C2AFE4F5F1F5F475F8AFB1
:1029060030FCFDE4FDFCD390B882E09D90B881E0F8
:102916009C404BD2FD90B87DE0FAA3E0FBEAF5F2CD
:102926008BF3D2FE20FEFDC2FD90B87FE0FAA3E055
:10293600FBEAF5F28BF3D2FE20FEFD90B87EE004B2
:10294600F0700690B87DE004F090B880E004F07076
:102956000690B87FE004F00DBD00010C80A890B889
:1029660076E0FBA3E0FAA3E0F990000A1203D46034
:1029760051C2FD75F40190B876E0FBA3E0FAA3E03E
:10298600F912076A780112074490B87DEEF0A3EFBA
:10299600F090B87DE0FCA3E0FDECF5F28DF3E4F5F4
:1029A600FAF5FBF5FCF5FDFCFDD390B882E09D90B1
:1029B600B881E09C400CD2FE20FEFD0DBD00010C4E
:0729C60080E7E4F5F8D2AF51
:0129CD0022E7
:105B8A00758911E4F58CF58AC28CF518F51A4389E2
:0C5B9A0001758CBC758ACDD2A9D28C227A
:03000B000249C7E0
:1049C700C0E0C0F0C083C082C0D075D000C000C0B6
:0749D70004C005C006C00783
:1049DE00C2AF758CBC758ACD051990B849E0FCA3A1
:1049EE00E0FDA3E0FEA3E02401FFE43EFEE43DFD76
:1049FE00E43CFC90B84912080A751B007E00740155
:104A0E00A81B088005C333CE33CED8F9FFEF551A55
:104A1E00602DE51B25E02408F808E616187001162F
:104A2E00E51B25E02408F8E6FE08E64E7011AF1BE4
:104A3E00A80704088002C333D8FC4218F4521A05A2
:084A4E001BE51BB408B6D2AF52
:104A5600D007D006D005D004D000D0D0D082D083E5
:054A6600D0F0D0E032A9
:105B0A00C2AFA8077401088002C333D8FCFE421A48
:105B1A00EF25E02408F8A60408A605EEF45218D2E8
:025B2A00AF22A8
:105C7D00C2AFA8077401088002C333D8FC5518FFC2
:025C8D00D2AF94
:015C8F0022F2
:0708D500449A050000000039
:104EA10090B472EBF0A3EAF0A3E9F07D02E4FF1203
:104EB10058C67D03E4FF12579A7B017D02E4FF127D
:104EC1004CE843C98075F1FFE4F5F275F36075F4C0
:104ED1000175F88F30FCFD90B472E0FBA3E0FAA3FA
:104EE100E0F91203BBF5FA9000011203D4F5FB902F
:104EF10000021203D4F5FC9000031203D4F5FDD295
:104F0100FE20FEFDE4F5FAF5FBF5FCF5FDD2FE20F1
:104F1100FEFD75FAFF75FBFF75FCFF75FDFFD2FE07
:104F210020FEFDE4F5F8758FA0E58F20E5FBD2B9F1
:014F3100225D
:103BB900C2B975F1FFE4F5F275F36475F40175F8AE
:103BC9008F30FCFD909A03E075F00DA42400F58276
:103BD900E5F0348DF583E0F5FAE4F5FBF5FCF5FD48
:103BE900D2FE20FEFD909A03E0FB75F00DA424019E
:103BF900F582E5F0348DF583E0FCA3E0FDA3E0FE5A
:103C0900A3E0FF78181207448FFA75F00DEBA4248E
:103C190001F582E5F0348DF583E0FCA3E0FDA3E036
:103C2900FEA3E0FF78101207448FFB909A03E0FB94
:103C390075F00DA42401F582E5F0348DF583E0FCDF
:103C4900A3E0FDA3E0FEA3E0FF78081207448FFC80
:103C590075F00DEBA42401F582E5F0348DF583A30D
:103C6900A3A3E0F5FDD2FE20FEFD909A03E0FF75C7
:103C7900F00DA42405F582E5F0348DF583E0F5FA1D
:103C890075F00DEFA42406F582E5F0348DF583E097
:103C9900F5FB909A03E0FF75F00DA42407F582E582
:103CA900F0348DF583E0F5FC75F00DEFA42408F5EB
:103CB90082E5F0348DF583E0F5FDD2FE20FEFD901E
:103CC9009A03E0FF75F00DA42409F582E5F0348D1F
:103CD900F583E0F5FA75F00DEFA4240AF582E5F015
:103CE900348DF583E0F5FB909A03E0FF75F00DA4A0
:103CF900240BF582E5F0348DF583E0F5FC75F00DC4
:103D0900EFA4240CF582E5F0348DF583E0F5FDD2BE
:103D1900FE20FEFD909A03E004F0E4F5F8D2B92202
:105C3E00123BB9909A047401F07D647C007F0712C8
:065C4E005B0A438F0422F3
:105AAE00E5E830E51053E8DF438F407FB87E0B12F8
:105ABE005C54538FBF909A04E0601A7F07125C7D8E
:105ACE00EF6012E4909A04F0909A02E0FFA3E06F68
:065ADE006003125C3E2291
:06227F0090B47712080A7A
:10228500D390B47DE0940090B47CE09408400302C0
:10229500250F90B47BE0FB90B47730E70FE0FCA30B
:1022A500E0FDA3E0FEA3E0FF7803800DE0FCA3E0E2
:1022B500FDA3E0FEA3E0FF781512075790B4861240
:1022C500080A909A02E0FA75F00DA42400F582E55B
:1022D500F0348DF583E030E63890B486E0FCA3E079
:1022E500FDA3E0FEA3E0FF75F00DEAA42401F5824D
:1022F500E5F0348DF58312080AEB54C0FF75F00D37
:10230500EAA42400F582E5F0348DF583EFF002248C
:10231500DB90B47CE0FCA3E0FDAE047803CEC313F0
:10232500CE13D8F990B484F0ED5407A3F0E490B43B
:1023350083F090B47BE054C0FFE4FCFDFE90B48ACA
:1023450012080AE490B481F090B484E0FF90B4815F
:10235500E0C39F400302240490B486E0FCA3E0FDA3
:10236500A3E0FEA3E0FF909A02E0FB75F00DA42424
:1023750001F582E5F0348DF58312080A90B48AE000
:10238500FCA3E0FDA3E0FEA3E04408FF75F00DEB20
:10239500A42400F582E5F0348DF583EFF0E490B4E4
:1023A50082F090B482E0FFC39408504490B47EE07C
:1023B500FBA3E0FAA3E0F990B483E0F5827583000E
:1023C5001203D4FE909A02E075F00DA42405F5825F
:1023D500E5F0348DF583E5822FF582E43583F583C9
:1023E500EEF090B483E004F090B482E004F080B2A3
:1023F500909A02E004F090B481E004F002234D903D
:10240500B485E0FB70030224E1A3E0FCA3E0FDA397
:10241500E0FEA3E0FF909A02E075F00DA42401F51B
:1024250082E5F0348DF58312080AAF0390B48AE093
:10243500F8A3E0F9A3E0FAA3E04FFF909A02E07554
:10244500F00DA42400F582E5F0348DF583EFF0E47A
:1024550090B482F090B485E0FF90B482E0FEC39F13
:10246500504490B47EE0FBA3E0FAA3E0F990B48376
:10247500E0F5827583001203D4FF909A02E075F0AF
:102485000DA42405F582E5F0348DF583E5822EF55E
:1024950082E43583F583EFF090B483E004F090B4E3
:1024A50082E004F080AE90B482E0FFC39408502629
:1024B500909A02E075F00DA42405F582E5F0348DBF
:1024C500F583E5822FF582E43583F583E4F090B456
:1024D50082E004F080D0909A02E004F0909A04E043
:1024E5007015123BB9909A047401F07D647C007FED
:1024F50007125B0A438F04909A04E0600D7F071270
:0A2505005C7DEF6005E4909A04F09D
:01250F0022A9
:102BFA00909A01E0FB909A00E06B7003022E0CA3FE
:102C0A00E0FE75F00DA42400F582E5F03480F5832A
:102C1A00E0540F90B476F075F00DEEA42401F5821D
:102C2A00E5F03480F583E0FCA3E0FDA3E0FEA3E039
:102C3A00FF909A0512080A75F00DEBA42401F5829B
:102C4A00E5F03480F583E0FCA3E0FDA3E0FEA3E019
:102C5A00FFE47B107A01F9F8C31207337003022DDF
:102C6A0009909A01E075F00DA42401F582E5F0348B
:102C7A0080F583E0FCA3E0FDA3E0FEA3E0FFE40B04
:102C8A00F8C31207336078909A01E075F00DA42416
:102C9A0001F582E5F03480F583E0FCA3E0FDA3E0D2
:102CAA00FEA3E0FFE47B981AF8C312073360509042
:102CBA009A01E075F00DA42401F582E5F03480F55F
:102CCA0083E0FCA3E0FDA3E0FEA3E0FFE40BF8C36E
:102CDA00120733602A909A01E075F00DA42401F5D9
:102CEA0082E5F03480F583E0FCA3E0FDA3E0FEA3D7
:102CFA00E0FFE47B97F8C31207336003022DDA90F2
:102D0A009A01E0FF75F00DA42405F582E5F0348000
:102D1A00F583E090B46EF075F00DEFA42406F58209
:102D2A00E5F03480F583E090B46FF0909A01E07595
:102D3A00F00DA42407F582E5F03480F583E090B421
:102D4A0070F075F00DEFA42408F582E5F03480F5F3
:102D5A0083E090B471F0909A01E075F00DA4240913
:102D6A00F582E5F03480F583E090B472F075F00DE9
:102D7A00EFA4240AF582E5F03480F583E090B47379
:102D8A00F0909A01E075F00DA4240BF582E5F03479
:102D9A0080F583E090B474F075F00DEFA4240CF57F
:102DAA0082E5F03480F583E090B475F090B47B74DA
:102DBA0080F0A3E4F0A37408F0A37401F0A374B440
:102DCA00F0A3746EF07F047E087D007C0012227FDF
:102DDA00909A01E004F0909A05E0FCA3E0FDA3E0DC
:102DEA00FEA3E0FF90B47912080A90B47D7401F052
:102DFA00A374B4F0A3746EF090B476E0FFE4FD120D
:022E0A00515025
:012E0C0022A3
:03004B0002166A30
:10166A00C0E0C0F0C083C082C0D075D000C000C046
:0D167A0001C002C003C004C005C006C007C7
:10168700C2B9E59130E70353913FE59120E60302A4
:10169700196A5391BF75F1FF75F20075F36875F418
:1016A7000175F8AF30FCFDD2FE20FEFD90B5A3E535
:1016B700FAF0E0FF909A00E075F00DA42400F5829F
:1016C700E5F03480F583EFF0D2FE20FEFD909A001E
:1016D700E075F00DA42401F582E5F03480F583C0B0
:1016E70083C082E0FCA3E0FDA3E0FEA3E0FF78084F
:1016F700120757D082D08312080A909A00E075F03B
:101707000DA42401F582E5F03480F583C083C082FF
:10171700E0F8A3E0F9A3E0FAA3E0FBAFFAEB4FFF91
:10172700EAFEE9FDE8FCD082D08312080A909A000D
:10173700E075F00DA42401F582E5F03480F583C04F
:1017470083C082E0FCA3E0FDA3E0FEA3E0FF7808EE
:10175700120757D082D08312080A909A00E075F0DA
:101767000DA42401F582E5F03480F583C083C0829F
:10177700E0F8A3E0F9A3E0FAA3E0FBAFFBEB4FFF30
:10178700EAFEE9FDE8FCD082D08312080A909A00AD
:10179700E075F00DA42401F582E5F03480F583C0EF
:1017A70083C082E0FCA3E0FDA3E0FEA3E0FF78088E
:1017B700120757D082D08312080A909A00E075F07A
:1017C7000DA42401F582E5F03480F583C083C0823F
:1017D700E0F8A3E0F9A3E0FAA3E0FBAFFCEB4FFFCF
:1017E700EAFEE9FDE8FCD082D08312080A909A004D
:1017F700E075F00DA42401F582E5F03480F583C08F
:1018070083C082E0FCA3E0FDA3E0FEA3E0FF78082D
:10181700120757D082D08312080A909A00E075F019
:101827000DA42401F582E5F03480F583C083C082DE
:10183700E0F8A3E0F9A3E0FAA3E0FBAFFDEB4FFF6D
:10184700EAFEE9FDE8FCD082D08312080A909A00EC
:10185700E075F00DA42401F582E5F03480F583C02E
:1018670083C082E0FCA3E0FDA3E0FEA3E0FF7803D2
:10187700120744D082D08312080A90B5A3E020E76C
:101887002D909A00E075F00DA42401F582E5F0345F
:1018970080F583C083C082E0FCA3E0FDA3E0FEA344
:1018A700E0FF7812120744D082D08312080A90B55D
:1018B700A3E030E603021961D2FE20FEFD909A00F4
:1018C700E0FF75F00DA42405F582E5F03480F5837B
:1018D700E5FAF075F00DEFA42406F582E5F0348003
:1018E700F583E5FBF075F00DEFA42407F582E5F02D
:1018F7003480F583E5FCF075F00DEFA42408F5823C
:10190700E5F03480F583E5FDF0D2FE20FEFD909AE8
:1019170000E0FF75F00DA42409F582E5F03480F5A9
:1019270083E5FAF075F00DEFA4240AF582E5F034AB
:1019370080F583E5FBF075F00DEFA4240BF582E548
:10194700F03480F583E5FCF075F00DEFA4240CF579
:1019570082E5F03480F583E5FDF075F800909A0094
:10196700E004F0E59130E5235391DF909A02E0FF20
:10197700A3E06F6011123BB9438F047D647C007F45
:1019870007125B0A8005909A04E4F0E59130E403BE
:101997005391EFE59130E3035391F7E59130E20678
:0B19A7005391FB438F0475E800D2B998
:1019B200D007D006D005D004D003D002D001D00089
:0B19C200D0D0D082D083D0F0D0E03233
:105C69009000011203D4FE54F0C4540FFFEE540FF8
:045C7900FD0258C60A
:085BDC00EBF0A3EAF0A3E9F0ED
:105BE4001203BBFE54F0C4540FFFEE540FFD0257D2
:015BF4009A16
:085BF500E0FBA3E0FAA3E0F9D4
:105BFD001203BBFE54F0C4540FFFEE540FFD0258B8
:015C0D00C6D0
:085C0E00E0FBA3E0FAA3E0F9BA
:105C16001203BBFE54F0C4540FFFEE540FFD0256A0
:015C26004E2F
:085BA600E0FBA3E0FAA3E0F923
:105BAE001203BBFE54F0C4540FFFEE540FFD7B01E5
:035BBE00024CE8AE
:085BC100E0FBA3E0FAA3E0F908
:105BC9001203BBFE54F0C4540FFFEE540FFDE4FB67
:035BD900024CE893
:085B4E00E0FBA3E0FAA3E0F97B
:105B56009000011203D4FE54F0C4540FFFEE540F0C
:065B6600FD7B01024CE88A
:085B6C00E0FBA3E0FAA3E0F95D
:105B74009000011203D4FE54F0C4540FFFEE540FEE
:065B8400FDE4FB024CE809
:10594D0090B8EEEBF0A3EAF0A3E9F090B8EE125B9D
:10595D00F590B8EE125BA690B8EE125B4E7F0F7EFF
:10596D0000125C5490B8EE125BC17F0F7E00125C8A
:0E597D005490B8EE125B6C7F0F7E00025C54FB
:10590E0090B8F1EBF0A3EAF0A3E9F090B8F1125BD6
:10591E00F590B8F1125BC190B8F1125B4E7F0F7E1D
:10592E0000125C5490B8F1125BA67F0F7E00125CE1
:0F593E005490B8F1E0FBA3E0FAA3E0F9025BE4B8
:105A3E0090B8F4EBF0A3EAF0A3E9F090B8F4125B9F
:105A4E00F590B8F4125BC17F057E00125C5490B8DD
:105A5E00F4125B4E7F057E00125C5490B8F4125B1C
:085A6E006C7F057E00025C5410
:105A760090B8F7EBF0A3EAF0A3E9F090B8F7125B61
:105A8600F590B8F7125BA67F057E00125C5490B8BD
:105A9600F7125B4E7F057E00125C5490B8F7125BDE
:085AA6006C7F057E00025C54D8
:0355410090B8DA45
:10554400125BDC90B8DA125BA67F057E00125C5415
:1055540090B8DA125B4E7F057E00125C54E490B87A
:10556400DDF090B8DA125C0EEF60137F057E001256
:105574005C5490B8DDE004F0E0C3943240E490B8A9
:10558400DA125B6C7F057E00125C5490B8DAE0FBA3
:09559400A3E0FAA3E0F9025BFDBB
:0E54DB0090B8C7EFF0A3EBF0A3EAF0A3E9F05E
:1054E900125BFDE490B8CBF090B8C7E030E706A3B3
:1054F900125BA6800690B8C8125BC190B8C7E025B8
:10550900E0F07F057E00125C5490B8C8125B4E7FB4
:10551900057E00125C5490B8C8125B6C90B8CBE061
:1055290004F0E0C36480948840BE90B8C8E0FBA34F
:08553900E0FAA3E0F90255417C
:0356A30090B8CCF0
:1056A600125BDCE490B8CFF07F057E00125C54906C
:1056B600B8CC125B4E7F057E00125C5490B8D0E0E9
:1056C600FF25E0F090B8CC125C0EEF90B8D06006E3
:1056D600E04401F08004E054FEF090B8CC125B6C1C
:1056E60090B8CFE004F0E0C3940840BC90B8D0E096
:0156F600FFB4
:0156F7002290
:103FBE005AA503824F4B5AA505824F4BA5EF000021
:103FCE0000000000000000000000000000000000E3
:103FDE0000000000000000000000000000000000D3
:103FEE0000000000000000000000000000000000C3
:103FFE0000000000000000000000000000000000B3
:10400E0000000000000000000000000000000000A2
:10401E000000000000000000000000000000000092
:10402E000000000000000000000000000000000082
:10403E000000000000000000000000000000000072
:10404E000000000000000000000000000000000062
:10405E000000000000000000000000000000000052
:10406E000000000000000000000000000000000042
:10407E000000000000000000000000000000000032
:10408E000000000000000000000000000000000022
:10409E000000000000000000000000000000000012
:1040AE000000000000000000000000000000000002
:1040BE0000000000000000000000000000000000F2
:0640CE00000000000000EC
:0A08DC00419E3D00C107C105C106A1
:064A6B0090B47212080A6B
:104A71007D04E4FF1258C67D05E4FF12579A909E0B
:104A81003E7402F0E4A3F0A3F0A3F0A3F0A3F0A31B
:104A9100F0A3F0A3F0A3F0A3F0A3F0FDFC744A2D62
:104AA100F58274A23CF583E4F00DBD00010CE4B580
:104AB10005EBECB401E7E4FCFD744A2DF582749E2C
:104AC1003CF583E4F00DBD00010CE4B505EBECB45D
:104AD10004E790B472E0F8A3E0F9A3E0FAA3E0FBE5
:104AE1007F007E387D317C00120693C3E49FFD7404
:104AF100049E43C94053B7CF43B71075D88075980A
:0B4B010050F5BAAF058FAAD2ACD2AFBE
:014B0C002286
:064F320090B8DE12080A2F
:104F3800E4FDFC90A34A7402F0E4A3F0A3F0A3F00C
:104F4800A3F0A3F0A3F0A3F0A3F0A3F0A3F0A3F0C1
:104F580074562DF58274A73CF583E4F00DBD00016D
:104F68000CE4B505EBECB401E7E4FCFD74562DF553
:104F78008274A33CF583E4F00DBD00010CE4B50593
:104F8800EBECB404E790B8DEE0F8A3E0F9A3E0FAAC
:104F9800A3E0FB7F007E707D627C00120693C3E471
:104FA8009FFD74049EF5BBAF058F9D43C92043B791
:094FB80040759B90439A01D2AFB1
:014FC10022CD
:064D7B0090B8E212080AE4
:104D810090A8567402F0E4A3F0A3F0A3F0A3F0A35B
:104D9100F0A3F0A3F0A3F0A3F0A3F0A3F0FDFC7443
:104DA100622DF58274AC3CF583E4F00DBD00010C7D
:104DB100E4B505EBECB401E7E4FCFD74622DF5828A
:104DC10074A83CF583E4F00DBD00010CE4B505EBDE
:104DD100ECB404E743B70390B8E2E0F8A3E0F9A329
:104DE100E0FAA3E0FB7F007EC07D897C011206937F
:104DF100AC06AD07759680759780D2BBD2BAECF53B
:0C4E0100D9AF058FE743B701C280D2AFE4
:014E0D002282
:064E0E0090B8E612080A4C
:104E140090AD627402F0E4A3F0A3F0A3F0A3F0A3B6
:104E2400F0A3F0A3F0A3F0A3F0A3F0A3F0FDFC74AF
:104E34006E2DF58274B13CF583E4F00DBD00010CD8
:104E4400E4B505EBECB401E7E4FCFD746E2DF582EA
:104E540074AD3CF583E4F00DBD00010CE4B505EB45
:104E6400ECB404E743B70390B8E6E0F8A3E0F9A391
:104E7400E0FAA3E0FB7F007EC07D897C01120693EB
:104E8400AC06AD0775A78075AB80D2BDD2BCECF57E
:0C4E9400AEAF058FAF43B702C281D2AFB2
:014EA00022EF
:0B5CA9007F007EC27D017C00024A6B80
:1059C80090B5A2EDF090B5A1EFF0BF0206A3E0FFFD
:1059D80002546E90B5A1E0B40306A3E0FF025400A0
:1059E80090B5A1E0B40406A3E0FF0251D090B5A1A0
:0B59F800E0B40506A3E0FF12524022BD
:1055F60090B59CEBF0A3EAF0A3E9F090B59BEFF031
:10560600E490B5A0F0BF0404D280800990B59BE079
:10561600B40502D281E490B5A0F090B59FE0FFA357
:10562600E0C39F502290B59BE0FFA3E0FBA3E47587
:10563600F0011204F9A9F0FA1203BBFD1259C89041
:07564600B5A0E004F080D3E1
:01564D00223A
:10546E00909E41E0FCA3E0FD244AF58274A23CF537
:10547E0083EFF0D3909E40E09D909E3FE09C401ABB
:10548E00909E42E02401FF909E41E03400FE909EEB
:10549E003FE06E7003A3E06F60E6909E42E004F082
:1054AE007006909E41E004F0C3909E41E09401404E
:1054BE0011909E3FE07002A3E060F6E4909E41F0F2
:0D54CE00A3F0909E43E0700404F0D29922F8
:1054000090A34DE0FCA3E0FD2456F58274A73CF583
:1054100083EFF0D390A34CE09D90A34BE09C401A07
:1054200090A34EE02401FF90A34DE03400FE90A332
:105430004BE06E7003A3E06F60E690A34EE004F0D3
:10544000700690A34DE004F0C390A34DE09401409A
:105450001190A34BE07002A3E060F6E490A34DF03E
:0E546000A3F090A34FE0700504F0439B0222DE
:1051D00090A859E0FCA3E0FD2462F58274AC3CF594
:1051E00083EFF0D390A858E09D90A857E09C401A18
:1051F00090A85AE02401FF90A859E03400FE90A83E
:1052000057E06E7003A3E06F60E690A85AE004F0E8
:10521000700690A859E004F0C390A859E0940140AA
:105220001190A857E07002A3E060F6E490A859F04E
:10523000A3F090A85BE0700704F0D28043960122AF
:1052400090AD65E0FCA3E0FD246EF58274B13CF501
:1052500083EFF0D390AD64E09D90AD63E09C401A85
:1052600090AD66E02401FF90AD65E03400FE90ADA6
:1052700063E06E7003A3E06F60E690AD66E004F05B
:10528000700690AD65E004F0C390AD65E094014018
:105290001190AD63E07002A3E060F6E490AD65F0BC
:1052A000A3F090AD67E0700704F0D28143A701221C
:0E33970090B58AEFF0A3EBF0A3EAF0A3E9F003
:1033A500E4A3F030060302344B90B58BE0FBA3E0B9
:1033B500FAA3E0F99000041203D4701190000512ED
:1033C50003D4B4060890000774A512046C90000499
:1033D5001203D4FE9000051203D47C002400FFECF8
:1033E5003EFEC006E92406F9E43AFAC003C002C06D
:1033F5000190B58BE0FBA3E0FAA3E0F9900002127F
:1034050003D424FDFEEC34FF90B5A0F0A3CEF0D09C
:1034150001D002D003D006122FF920070302354A46
:10342500788F7CB57D017BFF7A3F79BE7E007F0674
:1034350012039590B58AE0FF7B017AB5798F90B537
:033445009F74066B
:0334480002354604
:10344B00E490B58FF0A3F0A3F0A3F090B58BE0FB65
:10345B00A3E0FAA3E02403F9E43AFAC002C0019016
:10346B00B58BA3E0FAA3E0F99000021203D424FE7B
:10347B00FDE434FFFCD001D00212559D90B58FEEC8
:10348B00F0A3EFF090B58BE0FBA3E0FAA3E0F9908B
:10349B0000021203D4FD7C00F5828C83A3A31203DC
:1034AB00D4FE8D828C83A31203D42400FFEC3EFE4A
:1034BB0090B591F0A3EFF090B58FE06E7003A3E0A1
:1034CB006F707C90B58BE0FBA3E0FAA3E0F9900062
:1034DB00041203D4FE9000051203D47C002400FFD9
:1034EB00EC3EFEC006E92406F9E43AFAC002C0013C
:1034FB0090B58BA3E0FAA3E0F99000021203D42459
:10350B00FBFEEC34FF90B5A0F0A3CEF0D001D002BF
:08351B00D006122FF93007273A
:1035230078937CB57D017BFF7A3F79C47E007F0869
:1035330012039590B58AE0FF7B017AB5799390B534
:073543009F7408F01255F619
:01354A00225E
:0E25100090B58AEFF0A3EBF0A3EAF0A3E9F098
:10251E00E490B591F03006030225C4F090B58EE03C
:10252E00FBA3E0FAA3E0F9A3E0FFF58275830012A6
:10253E0003D4FE90B58BE0FBA3E0FAA3E0F98F8203
:10254E00758300EE12046C90B591E004F0E0B407D0
:10255E00CB90B58BE0FBA3E0FAA3E0F99000041258
:10256E0003D4FE9000051203D47C002400FFEC3E41
:10257E00FEE92407F9E43AFAC002C00190B58BA334
:10258E00E0FAA3E0F99000061203D4FD90B59BEC9F
:10259E00F0A3EDF0D001D00212450090B58BE0FB18
:1025AE00A3E0FAA3E0F99000061203D425E0240478
:0625BE0090000202274C10
:1025C400E490B592F0A3F0A3F0A3F090B591F0904D
:1025D400B58EE0FBA3E0FAA3E0F9A3E0FFF5827572
:1025E40083001203D4FE90B58BE0FBA3E0FAA3E0D2
:1025F400F98F82758300EE12046C90B591E004F0BB
:10260400E0B409CB90B58BE0FBA3E0FAA3E024038C
:10261400F9E43AFAC002C00190B58BA3E0FAA3E052
:10262400F99000021203D424FEFDE434FFFCD0012F
:10263400D00212559D90B592EEF0A3EFF090B58BB9
:10264400E0FBA3E0FAA3E0F99000021203D4FD7CBE
:1026540000F5828C83A3A31203D4FE8D828C83A302
:102664001203D42400FFEC3EFE90B594F0A3EFF0E7
:1026740090B592E06E7003A3E06F600302277A9036
:10268400B58BE0FBA3E0FAA3E0F99000041203D4B5
:10269400FE9000051203D47C002400FFEC3EFEE90A
:1026A4002407F9E43AFAC002C00190B58BA3E0FA1A
:1026B400A3E0F99000061203D4FD90B59BECF0A3BF
:1026C400EDF0D001D00212450090B58BE0FBA3E001
:1026D400FAA3E0F99000061203D425E02406900042
:1026E4000212046CE92403F9E43AFAC003C002C0FC
:1026F4000190B58BE0FBA3E0FAA3E0F9900002128D
:1027040003D424FEFDE434FFFCD001D002D0031234
:10271400559D90B592EEF0A3EFF090B58BE0FBA33E
:10272400E0FAA3E0F99000021203D4F58275830065
:10273400A3EF12046C90B592E0FF9000021203D450
:10274400F582758300A3A3EF12046CC003C002C01A
:102754000190B58BE0FBA3E0FAA3E0F9900002122C
:1027640003D4240390B59FF090B58AE0FFD001D044
:0627740002D0031255F62D
:01277A00223C
:104B0D0090B47FEDF090B47CEBF0A3EAF0A3E9F064
:104B1D00E490B480F0A3F0D2041203BB645A600396
:104B2D00024BAD90B47CE0FBA3E0FAA3E0F990005A
:104B3D00011203D464A570689000031203D4B482EB
:104B4D0010A2029207A203920690B47FE0FF0233F7
:104B5D009790B47CE0FBA3E0FAA3E0F99000031278
:064B6D0003D46483703ADA
:104B730078827CB47D017BFF7A3F79CC7E017F080C
:104B8300120395A203920690B47FE0FF90B47CE0F9
:104B9300F9A3E0FAA3E090B58EC9F0A3EAF0A3E984
:0A4BA300F07B017AB479821225102C
:014BAD0022E5
:0B12290090B46EEBF0A3EAF0A3E9F034
:10123400E490B478F0A3F0A3F0A3F090B46EE0FBD4
:10124400A3E0FAA3E0F990000612053AFFAEF0908D
:10125400000812053AC39FFFE5F09EFE90B475E0C6
:10126400FCA3E0FD2FFFEC3EFE12048EED4C700358
:10127400021630C2AF900006E475F001120572FE4A
:10128400E9240CF9E43AFAE925F0F9EA3EFA120302
:10129400BB90B477F090B46EE0FBA3E0FAA3E02433
:1012A40006F9E43AFA12050FFFAEF090B475E0FCCB
:1012B400A3E0FD12048EEC8DF012060B90B46EE0E8
:1012C400FBA3E0FAA3E0F990000AE412046CD2AFA5
:1012D40090000B1203D4704F90B471E0FBA3E0FABA
:1012E400A3E0F9E412045A90B471E0FBA3E0FAA37A
:1012F400E0F9900001E412046C900002E4F5F012AD
:10130400062A90010CE412046C90B477E0FF645A4E
:10131400600302123F90B46EE0FBA3E0FAA3E0F98D
:1013240090000B7401802290B46EE0FBA3E0FAA35A
:10133400E0F990000B1203D46401703D90B477E09F
:10134400FFB4A53290000B740212046C90B471E0E7
:10135400FBA3E0FAA3E0F990010C7401120401FD6F
:101364007C00E92404F9E43AFAE92DF9EC3AFAEFBD
:1013740012045A02123F02148090B46EE0FBA3E000
:10138400FAA3E0F990000B1203D46402706A90B4DB
:1013940077E0FFC39403400AD3EF940874809481E8
:1013A400400302148B90B477E0FF90B471E0FBA388
:1013B400E0FAA3E0F9EF12045A90B477E0FF90B496
:1013C40071E0FBA3E0FAA3E0F990010C74011204AC
:1013D40001FD7C00E92404F9E43AFAE92DF9EC3A38
:1013E400FAEF12045A90B46EE0FBA3E0FAA3E0F91A
:1013F40090000B74030215AE90B46EE0FBA3E0FA08
:10140400A3E0F990000B1203D4640360030214D820
:1014140090B477E0FF64826075EF64836070EF647A
:10142400806005EF6481705490B471E0FBA3E0FA2E
:10143400A3E0F9900001EF12046C90010C74011206
:101444000401FD7C00E92404F9E43AFAE92DF9ECFD
:101454003AFAEF12045A90B46EE0FBA3E0FAA3E068
:10146400F990000B740612046C90B471E0FBA3E0D5
:10147400FAA3E0F9740212043802123F90B46EE049
:10148400FBA3E0FAA3E0F990000BE40215AE90B4DC
:1014940077E0FF90B471E0FBA3E0FAA3E0F99000D9
:1014A40001EF12046C90010C7401120401FD7C0024
:1014B400E92404F9E43AFAE92DF9EC3AFAEF1204D2
:1014C4005A90B46EE0FBA3E0FAA3E0F990000B7429
:1014D400040215AE90B46EE0FBA3E0FAA3E0F99029
:1014E400000B1203D46404704D90B477E0FE90B402
:1014F40071E0FBA3E0FAA3E0F9900002EE75F000BE
:1015040012062A90B477E0FF90010C7401120401D2
:10151400FD7C00E92404F9E43AFAE92DF9EC3AFAFD
:10152400EF12045A90B46EE0FBA3E0FAA3E0F99042
:10153400000B7405807490B46EE0FBA3E0FAA3E0A2
:10154400F990000B1203D46405706590B471E0FB4C
:10155400A3E0FAA3E02402F9E43AFA12050FFF909B
:10156400B477E0FDEF4DFFE5F08FF012060B90B479
:1015740077E0FF90B471E0FBA3E0FAA3E0F99001F7
:101584000C7401120401FD7C00E92404F9E43AFA24
:10159400E92DF9EC3AFAEF12045A90B46EE0FBA389
:1015A400E0FAA3E0F990000B740612046C02123FF7
:1015B40090B46EE0FBA3E0FAA3E0F990000B1203F1
:1015C400D46406600302123F90B477E0FF90B471D4
:1015D400E0FBA3E0FAA3E0F990010C74011204010A
:1015E400FD7C00E92404F9E43AFAE92DF9EC3AFA2D
:1015F400EF12045A90B471E0FBA3E0FAA3E0F9906F
:10160400010C1203D4FF1203BB2403FDEC33FCEDE5
:101614006F7001EC600302123F90B46EE0FBA3E034
:10162400FAA3E0F990000B740712046C90B46EE016
:10163400FBA3E0FAA3E0F990000B1203D4B407254E
:1016440090000BE412046C90B471E0FBA3E0FAA3E5
:10165400E02404F9E43AFAA3E0FDA2009202A20114
:051664009203124B0D82
:01166900225E
:105AE40090B4717401F0A3749AF0A37409F0A374D0
:105AF40002F0A37404F0A3E4F0D200C2017B017AA3
:065B04009E793E02122909
:030023000249226D
:10492200C0E0C083C082C0D075D000C004C005C042
:0349320006C007B5
:1049350090B5A4E4F0C2AF30982CC298909E46E0A2
:10494500FEA3E0244AF582749E3EF583E599F09036
:104955009E47E004F07006909E46E004F0909E4667
:10496500E05403F08043309940C299909E41E0FEA7
:10497500A3E0FF909E3FE0FCA3E0FD6F7002EC6EAC
:104985006022744A2DF58274A23CF583E0F5999076
:104995009E40E004F07006909E3FE004F0909E3F3C
:1049A500E4F08005909E43E4F0909E3D7401F0D2C2
:0149B500AF52
:1049B600D007D006D005D004D0D0D082D083D0E0A6
:0149C60032BE
:03008300024BAE7F
:104BAE00C0E0C083C082C0D075D000C004C005C0B4
:104BBE0006C007E59B30E02D539BFE90A352E0FE0E
:104BCE00A3E02456F58274A33EF583E59CF090A3F2
:104BDE0053E004F0700690A352E004F090A352E06C
:104BEE005403F08049E59B30E144539BFD539BFDFC
:104BFE0090A34DE0FEA3E0FF90A34BE0FCA3E0FDED
:104C0E006F7002EC6E602274562DF58274A73CF51F
:104C1E0083E0F59C90A34CE004F0700690A34BE06B
:104C2E0004F090A34BE4F0800590A34FE4F0D0077E
:0F4C3E00D006D005D004D0D0D082D083D0E032C1
:03005B000257E663
:0D57E600C0E0C083C082C0D075D000C006F6
:1057F30090B5A5E4F0C2AF5397FE90A85EE0FEA378
:10580300E02462F58274A83EF583E59FF090A85FDB
:10581300E004F0700690A85EE004F090A85EE05407
:0458230003F0D2AF0D
:0B582700D006D0D0D082D083D0E03279
:030053000252B0A6
:1052B000C0E0C083C082C0D075D000C004C005C0AB
:0352C00006C0071E
:1052C30090B5A6E4F0C2AF5396FE90A859E0FEA3B2
:1052D300E0FF90A857E0FCA3E0FD6F7002EC6E6066
:1052E3002274622DF58274AC3CF583E0F59E90A8A0
:1052F30058E004F0700690A857E004F090A857E433
:0C530300F08007C28090A85BE4F0D2AFFD
:10530F00D007D006D005D004D0D0D082D083D0E043
:01531F00325B
:03006B0002583206
:0D583200C0E0C083C082C0D075D000C006A9
:10583F0090B5A7E4F0C2AF53ABFE90AD6AE0FEA304
:10584F00E0246EF58274AD3EF583E5ADF090AD6B5F
:10585F00E004F0700690AD6AE004F090AD6AE05499
:04586F0003F0D2AFC1
:0B587300D006D0D0D082D083D0E0322D
:0300630002532025
:10532000C0E0C083C082C0D075D000C004C005C03A
:0353300006C007AD
:1053330090B5A8E4F0C2AF53A7FE90AD65E0FEA31D
:10534300E0FF90AD63E0FCA3E0FD6F7002EC6E60E4
:1053530022746E2DF58274B13CF583E0F5AC90AD0B
:1053630064E004F0700690AD63E004F090AD63E494
:0C537300F08007C28190AD67E4F0D2AF7B
:10537F00D007D006D005D004D0D0D082D083D0E0D3
:01538F0032EB
:0B5CB40012574B125CCE124FC280FB57
:1008E6006100B26E00C1814001C0804101C08041FB
:1008F60000C1814001C0804100C1814000C18140EA
:1009060001C0804101C0804100C1814000C18140D9
:1009160001C0804100C1814001C0804101C08041C9
:1009260000C1814001C0804100C1814000C18140B9
:1009360001C0804100C1814001C0804101C08041A9
:1009460000C1814000C1814001C0804101C0804199
:1009560000C1814001C0804100C1814000C1814089
:1009660001C0804101C0804100C1814000C1814079
:1009760001C0804100C1814001C0804101C0804169
:1009860000C1814000C1814001C0804101C0804159
:1009960000C1814001C0804100C1814000C1814049
:1009A60001C0804100C1814001C0804101C0804139
:1009B60000C1814001C0804100C1814000C1814029
:1009C60001C0804101C0804100C1814000C1814019
:1009D60001C0804100C1814001C0804101C0804109
:1009E60000C181406100B36E00C0C101C30302C2F1
:1009F600C60607C705C5C404CC0C0DCD0FCFCE0E59
:100A06000ACACB0BC90908C8D81819D91BDBDA1AC8
:100A16001EDEDF1FDD1D1CDC14D4D515D71716D638
:100A2600D21213D311D1D010F03031F133F3F232A8
:100A360036F6F737F53534F43CFCFD3DFF3F3EFE18
:100A4600FA3A3BFB39F9F83828E8E929EB2B2AEA88
:100A5600EE2E2FEF2DEDEC2CE42425E527E7E626F8
:100A660022E2E323E12120E0A06061A163A3A26268
:100A760066A6A767A56564A46CACAD6DAF6F6EAED8
:100A8600AA6A6BAB69A9A86878B8B979BB7B7ABA48
:100A9600BE7E7FBF7DBDBC7CB47475B577B7B676B8
:100AA60072B2B373B17170B0509091519353529228
:100AB60096565797559594549C5C5D9D5F9F9E5E98
:100AC6005A9A9B5B99595898884849894B8B8A4A08
:100AD6004E8E8F4F8D4D4C8C448485458747468678
:080AE6008242438341818040FC
:10559D0090B59BEBF0A3EAF0A3E9F0A3ECF0A3ED3B
:0155AD00F00D
:1055AE007FFF7DFF90B59E74FFF5F01204F945F074
:1055BE00603190B59BE0FBA3E475F0011204F9A9EC
:1055CE00F0FA1203BB6DFB7A00246EF582EA34B258
:1055DE00F583E06FFD746E2BF582EA34B3F583E04C
:0755EE00FF80C1EFFEEDFF9D
:0155F5002293
:060AEE0043B8FA0000000D
:0C5C9D0090B8FAEBF0A3EAF0A3E9F022C3
:0551500090B477EFF0C0
:1051550090B480F0A3EDF090B479E0FCA3E0FDA35A
:10516500E0FEA3E0FF90B48212080AE4FFFE90B4CB
:1051750077E0FDC3EF9D7480F86E98502690B47D5E
:10518500E0FBA3E0FAA3E0F98F828E831203D4FD3E
:1051950074862FF58274B43EF583EDF00FBF0001E0
:1051A5000E80CB90B8FAE0FBA3E0FAA3E04A4B608F
:1051B500197B017AB47980C00290B8FAA3E0FAA30A
:0A51C500E0F5828A83D00212085739
:0151CF0022BD
:105A0300E4FB75F011EBA424A9F582E5F034B5F5B8
:105A130083E0FCA3E0FDA3E0FEA3E0FFEB25E0258C
:105A2300E024D7F582E434B7F58312080A0BEBB40C
:0B5A330009D07BFF7A387990025C9D5F
:0B38900090B46EEBF0A3EAF0A3E9F0A7
:10389B00A3E4F0A3F0A3F0A3F0A3F0A31208160087
:1038AB00000000E490B47AF0A3F0A3F0A3F090B47E
:1038BB006EE0FBA3E0FAA3E0F91203BB90B474F043
:1038CB009000011203D490B475F090000212078A95
:1038DB0090B47612080AE92406F9E43AFA90B47126
:1038EB00EBF0A3EAF0A3E9F0E490B47CF090B47CA5
:1038FB00E0FFC39407505C75F011EFA424ADF58283
:10390B00E5F034B5F583E0FCA3E0FDA3E0FEA3E016
:10391B00FF90B476E0F8A3E0F9A3E0FAA3E05FFF31
:10392B00EA5EFEE95DFDE85CFC90B47CE025E025F9
:10393B00E024D7F582E434B7F583E0F8A3E0F9A3EC
:10394B00E0FAA3E0FBC3120733600890B47CE004F9
:10395B00F0809A90B47CE0FFC394094003023A29AB
:10396B0075F011EFA424B1F582E5F034B5F583E0E1
:10397B00FF90B475E06F6003023A29A3E0FCA3E06B
:10398B00FDA3E0FEA3E0FF90B47E12080A90B4748E
:10399B00E090B482F0E490B47DF090B474E0FF90CA
:1039AB00B47DE0FEC39F502890B471E0FBA3E0FA16
:1039BB00A3E0F98E827583001203D4FF74832EF576
:1039CB0082E434B4F583EFF090B47DE004F080CA68
:1039DB0090B47CE0FD75F011A424B4F582E5F034CD
:1039EB00B5F583E0FBA3E0FAA3E04A4B6030EDFFB3
:1039FB007E0090B47AEEF0A3EFF07B017AB4797E7F
:103A0B00C00275F011A424B4F582E5F034B5F5834A
:0E3A1B00A3E0FAA3E0F5828A83D002120857D6
:013A2900227A
:100AF4006077B64200000000000000000000000023
:100B040000000000000000000000000000000000E1
:100B140000000000000000000000000000000000D1
:100B240000000000000000000000000000000000C1
:100B340000000000000000000000000000000000B1
:100B440000000000000000000000000000000000A1
:100B54000000000000000000000000000000000091
:100B640000000000000000000000006099B5A9002A
:100B74000007F0000007FF000000FF50CD01B6425F
:100B840000000110000007FF000001FF50CD01B676
:100B94005300000111000007FF000002FF50CD01C7
:100BA400B66400000098000007FF000003FF50CD6A
:100BB40001B67500000099000007FF000004FF5013
:100BC400CD01B68600000097000007FF000005FF76
:100BD40050CD01B697000007EA000007FF000006A9
:100BE400FF50CD01B6A8000007F10000000000008E
:100BF40007000000000000000000167FFFFFFF0058
:080C04000009000000000000DF
:10574B007D037F011258C6E4FB7D037F01124CE8F9
:10575B00E4F5C975F901F58075B773125B8A125CB4
:10576B00A990B46E7408F0A37425F0A3740FF0E441
:10577B00A3F07B017AB4796E124EA1D2AF7D327C4D
:0F578B00007F01125B0A7D057C00E4FF025B0AD0
:035CCE00025CC8AD
:070C0C0044B8EA00000000FB
:104FC200E4FF125C7DEF60F87F01125C7DEF600C04
:104FD2007D327C007F01125B0A125B2C90B8EAE002
:104FE200FCA3E0FDA3E0FEA3E02405FFE43EFEE413
:104FF2003DFDE43CFC90B8EA12080A909E3DE0B404
:105002000105E4F0125AE4125C27120D85122BFA04
:10501200125CBFE47B32FAF9F890B8EAE0FCA3E054
:10502200FDA3E0FEA3E0FF120693AC00AD01AE02C9
:10503200AF03E4FBFAF9F8C31207337003125C9072
:06504200125AAE024FC23B
:065CC800125A0302598B81
:105C270090B849E0FCA3E0FDA3E0FEA3E0FF90B439
:075C37006E12080A021CBDF9
:100C130042B81C00005CB8000000000000000000A7
:100C230000000000000000000000000000000000C1
:090C33000000000042B7FE0000C1
:10598B00E4FDFC90B79175F00BED120847EC75F048
:10599B000BA42583F583E0FAA3E0FBED25E0FFECF8
:1059AB0033FE74FE2FF58274B73EF583EAF0A3EB5A
:0C59BB00F00DBD00010CED64014C70C744
:0159C70022BD
:101CBD00E490B472F0A3F090B472E0FEA3E090B69D
:101CCD00B975F00E120847EE75F00EA42583F58355
:101CDD00A3A3E0FEA3E090B5B775F011120847EE8F
:101CED0075F011A42583F583E0FBA3E0FAA3E0F9D9
:101CFD0090B7FBEBF0A3EAF0A3E9F090001012030C
:101D0D00D47003021DA478747CB47D0190B7FBE000
:101D1D00FBA3E0FAA3E0F97E007F0E12039590B7C6
:101D2D00FBE0FBA3E0FAA3E0F9900010E412046CD1
:101D3D0090B472E0FEA3E090B6C175F00E120847A4
:101D4D00EE75F00EA42583F583E0FBA3E0FAA3E086
:101D5D00F9EA494B602E90B472A3E0FF7B017AB48F
:101D6D007974C00290B6C175F00E120847EE75F089
:101D7D000EA42583F583A3E0FAA3E0F5828A83D030
:101D8D000212085790B472E0FEA3E07802C333CE7E
:101D9D0033CED8F9021E9490B472E0FEA3E078021F
:101DAD00C333CE33CED8F92400F58274B83EF58313
:101DBD00E0FCA3E0FDA3E0FEA3E02401FFE43EFE72
:101DCD00E43DFDE43CFCC004C005C006C00790B472
:101DDD0072E0FEA3E07802C333CE33CED8F9FBAA6E
:101DED00062400F58274B83AF583D007D006D005E5
:101DFD00D00412080A74002BF58274B83AF583E00A
:101E0D00FCA3E0FDA3E0FEA3E0FF90B472E0FAA313
:101E1D00E090B6BD75F00E120847EA75F00EA425D8
:101E2D0083F583E0F8A3E0F9A3E0FAA3E0FBC31286
:101E3D000733506390B472E0FEA3E0FF90B6C47513
:101E4D00F00E120847EE75F00EA42583F583E0FB26
:101E5D00A3E0FAA3E0F9EA494B601C90B6C475F013
:101E6D000EEF120847EE75F00EA42583F583A3E05F
:101E7D00FAA3E0F912085390B472E0FEA3E07802E1
:101E8D00C333CE33CED8F92400F58274B83EF58332
:101E9D001208160000000090B473E004F070069074
:101EAD00B472E004F0C390B473E0940790B472E0A0
:101EBD0094005003021CC4E490B472F0A3F090B4EB
:101ECD0072E0FAA3E0FBC39401EA94004003021F01
:101EDD00A690B472E0FCA3E0FD25E0FFEC33FE74A8
:101EED00FE2FF58274B73EF583E0FEA3E0FF90B7B9
:101EFD008F75F00BED120847EC75F00BA42583F5EB
:101F0D0083E0FCA3E0FD12048EED4C705D90B79361
:101F1D0075F00BEB120847EA75F00BA42583F583DA
:101F2D00E0FBA3E0FAA3E0F9EA494B602290B4721A
:101F3D00E0FEA3E090B79375F00B120847EE75F035
:101F4D000BA42583F583A3E0FAA3E0F912085390BF
:101F5D00B473E025E0FF90B472E033FE74FE2FF50C
:101F6D008274B73EF583E4F0A3F090B473E025E0FE
:101F7D00FF90B472E033FE74FE2FF58274B73EF518
:101F8D0083E475F0011204E390B473E004F070067D
:091F9D0090B472E004F0021ECBC6
:011FA6002218
:0B50CD0090B46EEBF0A3EAF0A3E9F052
:1050D80090B5B775F011EF120847EE75F011A425D9
:1050E80083F583E0FBA3E0FAA3E0F990B471EBF059
:1050F800A3EAF0A3E9F090B81DE004F0700690B8B8
:105108001CE004F0EA494B603E90B471E0FBA3E078
:10511800FAA3E0F8AC02AD0390B46EE0FBA3E0FAAA
:10512800A3E0F97E007F0E12039590B471E0FBA313
:10513800E0FAA3E0F9900010740112046C90000EDC
:07514800E475F0011205BE41
:01514F00223D
:100C3C0060D2B6B900000000000000010000000006
:100C4C0000000000000100000014FF45E40000005B
:100C5C000000000200000014FF45E400000000004A
:100C6C00000300000014FF45E40000000000000435
:100C7C0000000014FF45E400000000000005000027
:100C8C000014FF45E4000000000000060000001402
:100C9C000000000000000000000000000000000048
:100CAC000000000000000000000000000000000038
:100CBC000000000000000000000000000000000028
:100CCC000000000000000000000000000000000018
:100CDC000000000000000000000000000000000008
:100CEC0000000000000000000000000000000000F8
:100CFC0000000000000000000000000000000000E8
:100D0C000000000000004BB78B000000090014002D
:040D1C0002000000D1
:100D200048B7BB000000000000000041B7BA004413
:100D3000B7C70000000044B7B60000000044B7C3C6
:100D40000000000044B7D10000000044B7CD00000F
:0C0D5000000042B7CB000042B7D5000104
:100D85007B017AB7799690B473E4F0A304F07F0001
:100D95007E111231D77B017AB7799890B473E4F05C
:100DA500A304F07F187E111231D77B017AB7799AA7
:100DB50090B473E4F0A304F07F177E111231D77B52
:100DC500017AB779A090B473E4F0A304F07F137EA1
:100DD500111231D77B017AB779A290B473E4F0A3ED
:100DE50004F07F157E111231D790B796E07004A3F9
:100DF500E06401602790B798E07004A3E0640160A7
:100E05001B90B79AE07004A3E06401600F90B7A24D
:100E1500E07004A3E064016003020EDAE4FFFEFD66
:100E2500FC90B7B6E0F8A3E0F9A3E0FAA3E0FBC3B2
:100E3500120733701790B849E0FCA3E0FDA3E0FE6C
:100E4500A3E0FF90B7B612080A020EE490B7B6E029
:100E5500F8A3E0F9A3E0FAA3E0FB90B849E0FCA30E
:100E6500E0FDA3E0FEA3E0C39BFFEE9AFEED99FD36
:100E7500EC98FCE47B64FAF9F8D312073350607BF5
:100E8500017AB779CB90B47DE4F0A304F07F007EBE
:100E950011123A2A7B017AB779CB90B47DE4F0A39D
:100EA50004F07F187E11123A2A7B017AB779CB902C
:100EB500B47DE4F0A304F07F177E11123A2A7B017A
:100EC5007AB779CB90B47DE4F0A304F07F157E1159
:100ED500123A2A800090B7B612081600000000905A
:100EE500B7A0E07004A3E06401600302106890B746
:100EF500BAE0B4012BE4F07B017AB779CB90B47DED
:100F0500F0A304F07411FFFE123A2A7B017AB77937
:100F1500CB90B47DE4F0A304F07F127E11123A2A3F
:100F25007B017AB7799C90B473E4F0A304F0741153
:100F3500FFFE1231D77B017AB7799E90B473E4F046
:100F4500A304F07F127E111231D790B79CE0700494
:100F5500A3E064017078FFFEFDFC90B7C7E0F8A33D
:100F6500E0F9A3E0FAA3E0FBC3120733701690B8CB
:100F750049E0FCA3E0FDA3E0FEA3E0FF90B7C712A4
:100F8500080A805490B7C7E0F8A3E0F9A3E0FAA3F4
:100F9500E0FB90B849E0FCA3E0FDA3E0FEA3E0C3BD
:100FA5009BFFEE9AFEED99FDEC98FCE47B64FAF963
:100FB500F8D312073350217B017AB779CB90B47DF2
:100FC500E4F0A304F07411FFFE123A2A800A90B7E8
:100FD500C71208160000000090B79EE07004A3E059
:100FE50064017079FFFEFDFC90B7C3E0F8A3E0F95A
:100FF500A3E0FAA3E0FBC3120733701490B849E0ED
:10100500FCA3E0FDA3E0FEA3E0FF90B7C3021170CF
:1010150090B7C3E0F8A3E0F9A3E0FAA3E0FB90B82A
:1010250049E0FCA3E0FDA3E0FEA3E0C39BFFEE9A2D
:10103500FEED99FDEC98FCE47B64FAF9F8D3120710
:101045003340030211C97B017AB779CB90B47DE4B3
:10105500F0A304F07F127E11123A2A800090B7C3E4
:101065000211C290B7A0E07002A3E060030211C9AB
:1010750090B79CF0A3F0A3F0A3F090B7BA04F0FBEF
:101085007AB779A490B473E4F0A304F07411FFFE69
:101095001231D77B017AB779A690B473E4F0A30433
:1010A500F07F127E111231D790B7A4E07004A3E04F
:1010B50064017078FFFEFDFC90B7D1E0F8A3E0F97C
:1010C500A3E0FAA3E0FBC3120733701690B849E01A
:1010D500FCA3E0FDA3E0FEA3E0FF90B7D112080A50
:1010E500805490B7D1E0F8A3E0F9A3E0FAA3E0FBC0
:1010F50090B849E0FCA3E0FDA3E0FEA3E0C39BFF9D
:10110500EE9AFEED99FDEC98FCE47B64FAF9F8D3D0
:1011150012073350217B017AB779CB90B47DE4F087
:10112500A304F07411FFFE123A2A800A90B7D11277
:1011350008160000000090B7A6E07004A3E0640163
:101145007078FFFEFDFC90B7CDE0F8A3E0F9A3E0D1
:10115500FAA3E0FBC3120733701690B849E0FCA36D
:10116500E0FDA3E0FEA3E0FF90B7CD12080A80548E
:1011750090B7CDE0F8A3E0F9A3E0FAA3E0FB90B8BF
:1011850049E0FCA3E0FDA3E0FEA3E0C39BFFEE9ACC
:10119500FEED99FDEC98FCE47B64FAF9F8D31207AF
:1011A5003350217B017AB779CB90B47DE4F0A30469
:1011B500F07F127E11123A2A800A90B7CD120816D6
:1011C5000000000090B79EA3E0540125E0FF90B712
:1011D5009CA3E054014F90B7BCF090B798A3E0549E
:1011E5000125E0FF90B796A3E054014FFF90B79A11
:1011F500A3E0540125E025E04FFF90B7A2A3E054FA
:1012050001C43354E04FFFA3A3E05401C433335466
:10121500C04FFFA3A3E05401C433333354804F9030
:04122500B7BBF02241
:105B2C00E490B47BF0A3F0A37408F0A37401F0A389
:105B3C0074B7F0A374BBF07F197E017D007C00026A
:025B4C00227FB6
:0E0D5C0042B8D4000142B8D1000041B8D30023
:095CBF0090B824E090B8D3F02263
:1040D40090B891EBF0A3EAF0A3E9F0A3E0FBA3E02E
:1040E400FAA3E0F91203BB5401FF90B891E0FBA3DB
:1040F400E0FAA3E0F9EF12045A90B894E0FBA3E0CD
:10410400FAA3E0F91203BBFFC3135401FE90B89164
:10411400E0FBA3E0FAA3E0F9900001EE12046CEFD7
:104124001313540190000212046C90B894E0FBA3A2
:10413400E0FAA3E0F91203BBFF1313135401FE903A
:10414400B891E0FBA3E0FAA3E0F9900003EE1204B7
:104154006CEFC413540190000412046C90B894E002
:10416400FBA3E0FAA3E0F91203BBFFC41313540149
:10417400FE90B891E0FBA3E0FAA3E0F9900005EE0D
:1041840012046CEFC4131313540190000612046C50
:1041940090B894E0FBA3E0FAA3E0F99000011203C5
:1041A400D45401FF90B891E0FBA3E0FAA3E0F990A6
:1041B4000007EF12046C90B894E0FBA3E0FAA3E0CC
:1041C400F99000011203D4C3135401FF90B891E095
:1041D400FBA3E0FAA3E0F9900008EF12046CE47F7B
:0641E400197E01FDFC2222
:103E920090B897EBF0A3EAF0A3E9F090B897E0FBB3
:103EA200A3E0FAA3E0F91203BB12045A90B897E018
:103EB200FBA3E0FAA3E0F99000011203D490000101
:103EC20012046C9000021203D490000212046C904F
:103ED20000031203D490000312046C900004120336
:103EE200D490000412046C9000051203D4900005D3
:103EF20012046C9000061203D490000612046C9017
:103F020000071203D490000712046C9000081203F9
:103F1200D490000812046C9000011203D4540125BD
:103F2200E0FF1203BB54014FFF9000021203D4546E
:103F32000125E025E04FFF9000031203D454013322
:103F4200333354F84FFF9000041203D45401C433A6
:103F520054E04FFF9000051203D45401C43333548C
:103F6200C04FFF9000061203D45401C433333354BC
:103F7200804FFF90B89AE0FBA3E0FAA3E0F9EF12BA
:103F8200045A90B897E0FBA3E0FAA3E0F990000886
:103F92001203D4540125E0FF9000071203D4540108
:103FA2004FFF90B89AE0FBA3E0FAA3E0F99000017A
:0C3FB200EF12046CE47F197E01FDFC227C
:1041EA0090B471EBF0A3EAF0A3E9F0A3E0FBA3E03B
:1041FA00FAA3E0F91203BB5401FF90B471E0FBA3E8
:10420A00E0FAA3E0F9EF12045A90B474E0FBA3E0D9
:10421A00FAA3E0F91203BBFFC3135401FE90B47171
:10422A00E0FBA3E0FAA3E0F9900001EE12046CEFC0
:10423A001313540190000212046C90B474E0FBA3AF
:10424A00E0FAA3E0F91203BB1313135401FF90B46D
:10425A0071E0FBA3E0FAA3E0F9900003EF12046C0B
:10426A0090B474E0FBA3E0FAA3E0F9900002120311
:10427A00D4FE9000011203D4FDEDFF90B471E0FB6F
:10428A00A3E0FAA3E0F9900004EE8FF012062A9058
:10429A00B474E0FBA3E0FAA3E0F99000041203D49B
:1042AA00FE9000031203D4FDEDFF90B471E0FBA36E
:1042BA00E0FAA3E0F9900006EE8FF012062A90B415
:1042CA0074E0FBA3E0FAA3E0F99000061203D4FE1F
:1042DA009000051203D4FDEDFF90B471E0FBA3E05A
:1042EA00FAA3E0F9900008EE8FF012062AE47F1193
:0542FA007E01FDFC2225
:1036EE0090B89DEBF0A3EAF0A3E9F090B89DE0FB53
:1036FE00A3E0FAA3E0F91203BB12045A90B89DE0BE
:10370E00FBA3E0FAA3E0F99000011203D4900001AC
:10371E0012046C9000021203D490000212046C90FA
:10372E0000031203D490000312046C9000041205DF
:10373E003AFF900004E5F08FF012062A9000061270
:10374E00053AFF900006E5F08FF012062A90000869
:10375E0012053AFF900008E5F08FF012062A90004D
:10376E00011203D4540125E0FF1203BB54014FFF95
:10377E009000021203D4540125E025E04FFF900083
:10378E00031203D4540133333354F84FFF90B8A0CF
:10379E00E0FBA3E0FAA3E0F9EF12045A90B89DE023
:1037AE00FBA3E0FAA3E0F990000412053AFF90B8EB
:1037BE00A0E0FBA3E0FAA3E0F9900001EF12046C85
:1037CE0090B89DE0FBA3E0FAA3E0F9900004120587
:1037DE003AE5F0FF90B8A0E0FBA3E0FAA3E0F99081
:1037EE000002EF12046C90B89DE0FBA3E0FAA3E098
:1037FE00F990000612053AFF90B8A0E0FBA3E0FA9C
:10380E00A3E0F9900003EF12046C90B89DE0FBA3C7
:10381E00E0FAA3E0F990000612053AE5F0FF90B841
:10382E00A0E0FBA3E0FAA3E0F9900004EF12046C11
:10383E0090B89DE0FBA3E0FAA3E0F9900008120512
:10384E003AFF90B8A0E0FBA3E0FAA3E0F9900005E0
:10385E00EF12046C90B89DE0FBA3E0FAA3E0F990A0
:10386E00000812053AE5F0FF90B8A0E0FBA3E0FADD
:10387E00A3E0F9900006EF12046CE47F117E01FDC7
:02388E00FC221A
:104C4D0090B8A3EBF0A3EAF0A3E9F0A3E0FBA3E097
:104C5D00FAA3E0F91203BBFF90B8A3E0FBA3E0FABF
:104C6D00A3E0F9EF12045A90B8A6E0FBA3E0FAA373
:104C7D00E0F99000011203D4FF90B8A3E0FBA3E08C
:104C8D00FAA3E0F9900001EF12046C90B8A6E0FBD6
:104C9D00A3E0FAA3E0F99000021203D4FF90B8A3A9
:104CAD00E0FBA3E0FAA3E0F9900002EF12046C9090
:104CBD00B8A6E0FBA3E0FAA3E0F99000031203D439
:104CCD00FF90B8A3E0FBA3E0FAA3E0F9900003EF97
:0B4CDD0012046CE47F127E01FDFC223B
:1046C20090B8A9EBF0A3EAF0A3E9F090B8A9E0FB57
:1046D200A3E0FAA3E0F91203BB12045A90B8A9E0CE
:1046E200FBA3E0FAA3E0F99000011203D4900001C9
:1046F20012046C9000021203D490000212046C9017
:1047020000031203D490000312046C1203BBFF9047
:10471200B8ACE0FBA3E0FAA3E0F9EF12045A90B8B8
:10472200A9E0FBA3E0FAA3E0F99000011203D4FF91
:1047320090B8ACE0FBA3E0FAA3E0F9900001EF121D
:10474200046C90B8A9E0FBA3E0FAA3E0F9900002A0
:104752001203D4FF90B8ACE0FBA3E0FAA3E0F99017
:104762000002EF12046C90B8A9E0FBA3E0FAA3E008
:10477200F99000031203D4FF90B8ACE0FBA3E0FA77
:10478200A3E0F9900003EF12046CE47F127E01FDB6
:02479200FC2207
:1019CD0090B471EBF0A3EAF0A3E9F0A3E0FBA3E080
:1019DD00FAA3E0F91203BB5401FF90B471E0FBA32D
:1019ED00E0FAA3E0F9EF12045A90B474E0FBA3E01F
:1019FD00FAA3E0F91203BBFFC3135401FE90B471B7
:101A0D00E0FBA3E0FAA3E0F9900001EE12046CEF05
:101A1D001313540190000212046C90B474E0FBA3F4
:101A2D00E0FAA3E0F91203BBFF1313135401FE9068
:101A3D00B471E0FBA3E0FAA3E0F9900003EE120409
:101A4D006CEFC413540190000412046C90B474E054
:101A5D00FBA3E0FAA3E0F91203BBC4131313540163
:101A6D00FF90B471E0FBA3E0FAA3E0F9900005EF5D
:101A7D0012046C90B474E0FBA3E0FAA3E0F99000BB
:101A8D00011203D4540FFF90B471E0FBA3E0FAA34D
:101A9D00E0F9900006EF12046C90B474E0FBA3E043
:101AAD00FAA3E0F99000021203D4541FFF90B47111
:101ABD00E0FBA3E0FAA3E0F9900007EF12046C90AD
:101ACD00B474E0FBA3E0FAA3E0F99000051203D48F
:101ADD00FE9000041203D4FDEDFF90B471E0FBA362
:101AED00E0FAA3E0F9900008EE8FF012062A90B408
:101AFD0074E0FBA3E0FAA3E0F99000061203D454BE
:101B0D0001FF90B471E0FBA3E0FAA3E0F990000AA5
:101B1D00EF12046C90B474E0FBA3E0FAA3E0F9902B
:101B2D0000061203D4C3135401FF90B471E0FBA35C
:101B3D00E0FAA3E0F990000BEF12046C90B474E09E
:101B4D00FBA3E0FAA3E0F99000061203D41313549B
:101B5D0001FF90B471E0FBA3E0FAA3E0F990000C53
:101B6D00EF12046C90B474E0FBA3E0FAA3E0F990DB
:101B7D0000061203D41313135401FF90B471E0FB4C
:101B8D00A3E0FAA3E0F990000DEF12046C90B47489
:101B9D00E0FBA3E0FAA3E0F99000061203D4C454CD
:101BAD0001FF90B471E0FBA3E0FAA3E0F990000E01
:101BBD00EF12046C90B474E0FBA3E0FAA3E0F9908B
:101BCD0000061203D4C4135401FF90B471E0FBA3BB
:101BDD00E0FAA3E0F990000FEF12046C90B474E0FA
:101BED00FBA3E0FAA3E0F99000061203D4C413138B
:101BFD005401FF90B471E0FBA3E0FAA3E0F990006B
:101C0D0010EF12046C90B474E0FBA3E0FAA3E0F9BA
:101C1D009000061203D4C41313135401FF90B47132
:101C2D00E0FBA3E0FAA3E0F9900011EF12046C9031
:101C3D00B474E0FBA3E0FAA3E0F99000071203D41B
:101C4D00C3135401FF90B471E0FBA3E0FAA3E0F9D4
:101C5D00900012EF12046C90B474E0FBA3E0FAA3B1
:101C6D00E0F99000071203D41313135401FF90B43D
:101C7D0071E0FBA3E0FAA3E0F9900013EF12046CFE
:101C8D0090B474E0FBA3E0FAA3E0F990000712030F
:101C9D00D4C4135401FF90B471E0FBA3E0FAA3E0A8
:101CAD00F9900014EF12046CE47F107E01FDFC220C
:101FA70090B8AFEBF0A3EAF0A3E9F090B8AFE0FB8D
:101FB700A3E0FAA3E0F91203BB12045A90B8AFE00A
:101FC700FBA3E0FAA3E0F99000011203D49000010B
:101FD70012046C9000021203D490000212046C9059
:101FE70000031203D490000312046C900004120340
:101FF700D490000412046C9000051203D4900005DD
:1020070012046C9000061203D490000612046C9020
:1020170000071203D490000712046C900008120501
:102027003AFF900008E5F08FF012062A90000A1296
:1020370003D490000A12046C90000B1203D4900092
:102047000B12046C90000C1203D490000C12046C59
:1020570090000D1203D490000D12046C90000E1224
:1020670003D490000E12046C90000F1203D490005A
:102077000F12046C9000101203D490001012046C1D
:102087009000111203D490001112046C90001212E8
:1020970003D490001212046C9000131203D4900022
:1020A7001312046C9000141203D490001412046CE1
:1020B7009000011203D4540125E0FF1203BB540121
:1020C7004FFF9000021203D4540125E025E04FFF93
:1020D7009000031203D4540133333354F84FFF9065
:1020E70000041203D45401C43354E04FFF90000599
:1020F7001203D45401C433333354804FFF90B8B222
:10210700E0FBA3E0FAA3E0F9EF12045A90B8AFE0BE
:10211700FBA3E0FAA3E0F99000061203D4540FFFE3
:1021270090B8B2E0FBA3E0FAA3E0F9900001EF1248
:10213700046C90B8AFE0FBA3E0FAA3E0F9900007C6
:102147001203D4541FFF90B8B2E0FBA3E0FAA3E058
:10215700F9900002EF12046C90B8AFE0FBA3E0FA2D
:10216700A3E0F990000812053AFF90B8B2E0FBA38C
:10217700E0FAA3E0F9900004EF12046C90B8AFE026
:10218700FBA3E0FAA3E0F990000812053AE5F0FF97
:1021970090B8B2E0FBA3E0FAA3E0F9900005EF12D4
:1021A700046C90B8AFE0FBA3E0FAA3E0F990000B52
:1021B7001203D4540125E0FF90000A1203D45401FE
:1021C7004FFF90000C1203D4540125E025E04FFF88
:1021D70090000D1203D4540133333354F84FFF905A
:1021E700000E1203D45401C454F04FFF90000F1295
:1021F70003D45401C43354E04FFF9000101203D4AA
:102207005401C4333354C04FFF9000111203D45408
:1022170001C433333354804FFF90B8B2E0FBA3E0DF
:10222700FAA3E0F9900006EF12046C90B8AFE0FB58
:10223700A3E0FAA3E0F99000131203D45401333357
:102247003354F8FF9000121203D4540125E04FFFD6
:102257009000141203D45401C43354E04FFF90B8D4
:10226700B2E0FBA3E0FAA3E0F9900007EF12046CD9
:08227700E47F107E01FDFC2252
:1053900090B471EBF0A3EAF0A3E9F0A3E0FBA3E083
:1053A000FAA3E0F99000051203D4FE900004120362
:1053B000D4FDEDFF90B471E0FBA3E0FAA3E0F9EEB9
:1053C0008FF012060B90B471E0FBA3E0FAA3E0F9B2
:1053D00012050FFDACF0EC12020B7BCD7ACC79CC30
:1053E000783D12010012024490B471E0FBA3E0FA90
:1053F000A3E0F9EE8FF012060BE47F97FEFDFC228E
:1056F80090B8B5EBF0A3EAF0A3E9F090B8B5E0FBF9
:10570800A3E0FAA3E0F912050FFFE5F08FF0120607
:105718000B90B8B5E0FBA3E0FAA3E0F912050FFD82
:1057280090B8B8E0FBA3E0FAA3E0F9900004ED120A
:10573800046CE5F0FFEF90000512046CE47F97FE1F
:03574800FDFC2243
:1047940090B471EBF0A3EAF0A3E9F0A3E0FBA3E08B
:1047A400FAA3E0F91203BBFF90B471E0FBA3E0FAB3
:1047B400A3E0F9EF12045A90B474E0FBA3E0FAA367
:1047C400E0F99000011203D4FF90B471E0FBA3E080
:1047D400FAA3E0F9900001EF12046C90B474E0FBCA
:1047E400A3E0FAA3E0F99000021203D4FF90B4719D
:1047F400E0FBA3E0FAA3E0F9900002EF12046C904E
:10480400B474E0FBA3E0FAA3E0F99000041203D42B
:10481400FE9000031203D4FDEDFF90B471E0FBA3FE
:10482400E0FAA3E0F9900003EE8FF012062A1203D7
:10483400BBFCE41202107BCD7ACC79CC783D12011A
:104844000012024490B471E0FBA3E0FAA3E0F9EF94
:0A48540012045AE47F99FEFDFC22D5
:1044040090B8BBEBF0A3EAF0A3E9F090B8BBE0FBF3
:10441400A3E0FAA3E0F91203BB12045A90B8BBE07C
:10442400FBA3E0FAA3E0F99000011203D490000189
:1044340012046C9000021203D490000212046C90D7
:10444400000312053AFF900003E5F08FF012062AEC
:104454001203BBFF90B8BEE0FBA3E0FAA3E0F9EFC0
:1044640012045A90B8BBE0FBA3E0FAA3E0F9900071
:10447400011203D4FF90B8BEE0FBA3E0FAA3E0F975
:10448400900001EF12046C90B8BBE0FBA3E0FAA328
:10449400E0F99000021203D4FF90B8BEE0FBA3E061
:1044A400FAA3E0F9900002EF12046C90B8BBE0FBB1
:1044B400A3E0FAA3E0F990000312053AFF90B8BE16
:1044C400E0FBA3E0FAA3E0F9900003EF12046C9080
:1044D400B8BBE0FBA3E0FAA3E0F990000312053AAD
:1044E400E5F0FF90B8BEE0FBA3E0FAA3E0F990008A
:0C44F40004EF12046CE47F99FEFDFC2232
:10354B0090B471EBF0A3EAF0A3E9F0A3E0FBA3E0E6
:10355B00FAA3E0F91203BB5401FF90B471E0FBA393
:10356B00E0FAA3E0F9EF12045A90B474E0FBA3E085
:10357B00FAA3E0F91203BBFFC3135401FE90B4711D
:10358B00E0FBA3E0FAA3E0F9900001EE12046CEF6C
:10359B001313540190000212046C90B474E0FBA35B
:1035AB00E0FAA3E0F91203BBFF1313135401FE90CF
:1035BB00B471E0FBA3E0FAA3E0F9900003EE120470
:1035CB006CEFC4540190000412046C90B474E0FBD3
:1035DB00A3E0FAA3E0F99000021203D4FE900001DD
:1035EB001203D4FDEDFF90B471E0FBA3E0FAA3E06E
:1035FB00F9900005EE8FF012062A90B474E0FBA34D
:10360B00E0FAA3E0F99000041203D4FE9000031239
:10361B0003D4FDEDFF90B471E0FBA3E0FAA3E0F956
:10362B00900007EE8FF012062A90B474E0FBA3E033
:10363B00FAA3E0F99000061203D4FE9000051203E2
:10364B00D4FDEDFF90B471E0FBA3E0FAA3E0F99099
:10365B000009EE8FF012062A90B474E0FBA3E0FA97
:10366B00A3E0F99000071203D45401FF90B471E06A
:10367B00FBA3E0FAA3E0F990000BEF12046C9000AF
:10368B000512053AFDACF0EC12020B7BCD7ACC792E
:10369B00CC783D12010012024490B471E0FBA3E020
:1036AB00FAA3E0F9900005EE8FF012062A900007BE
:1036BB0012053AFDACF0EC12020B7BCD7ACC79CC37
:1036CB00783D12010012024490B471E0FBA3E0FAC2
:1036DB00A3E0F9900007EE8FF012062AE47F98FE24
:0336EB00FDFC22C1
:102E0D0090B8C1EBF0A3EAF0A3E9F090B8C1E0FBF4
:102E1D00A3E0FAA3E0F91203BB12045A90B8C1E083
:102E2D00FBA3E0FAA3E0F99000011203D490000196
:102E3D0012046C9000021203D490000212046C90E4
:102E4D0000031203D490000312046C9000041203CB
:102E5D00D490000412046C90000512053AFF900006
:102E6D0005E5F08FF012062A90000712053AFF9043
:102E7D000007E5F08FF012062A90000912053AFFBF
:102E8D00900009E5F08FF012062A90000B1203D482
:102E9D0090000B12046C9000011203D4540125E034
:102EAD00FF1203BB54014FFF9000021203D45401D3
:102EBD0025E025E04FFF9000031203D45401333376
:102ECD003354F84FFF9000041203D45401C454F04E
:102EDD004FFF90B8C4E0FBA3E0FAA3E0F9EF1204B2
:102EED005A90B8C1E0FBA3E0FAA3E0F990000512F7
:102EFD00053AFF90B8C4E0FBA3E0FAA3E0F9900017
:102F0D0001EF12046C90B8C1E0FBA3E0FAA3E0F965
:102F1D0090000512053AE5F0FF90B8C4E0FBA3E080
:102F2D00FAA3E0F9900002EF12046C90B8C1E0FB37
:102F3D00A3E0FAA3E0F990000712053AFF90B8C498
:102F4D00E0FBA3E0FAA3E0F9900003EF12046C900C
:102F5D00B8C1E0FBA3E0FAA3E0F990000712053A2F
:102F6D00E5F0FF90B8C4E0FBA3E0FAA3E0F9900010
:102F7D0004EF12046C90B8C1E0FBA3E0FAA3E0F9F2
:102F8D0090000912053AFF90B8C4E0FBA3E0FAA344
:102F9D00E0F9900005EF12046C90B8C1E0FBA3E0DE
:102FAD00FAA3E0F990000912053AE5F0FF90B8C4D4
:102FBD00E0FBA3E0FAA3E0F9900006EF12046C9099
:102FCD00B8C1E0FBA3E0FAA3E0F990000B1203D423
:102FDD005401FF90B8C4E0FBA3E0FAA3E0F9900020
:0C2FED0007EF12046CE47F98FEFDFC224C
:1045E40090B46EEBF0A3EAF0A3E9F0EE60030246A8
:1045F400C1EF24FE6037146058146079147003020C
:10460400469D240460030246C190B46EE0FBA3E01F
:10461400FAA3E02405F9E43AFA90B474EBF0A3EABF
:10462400F0A3E9F07B017AB8791E0219CD90B46E3B
:10463400E0FBA3E0FAA3E02405F9E43AFA90B474A9
:10464400EBF0A3EAF0A3E9F07B017AB879330241F5
:10465400EA90B46EE0FBA3E0FAA3E02405F9E43A9F
:10466400FA90B474EBF0A3EAF0A3E9F07B017AB812
:10467400795502354B90B46EE0FBA3E0FAA3E02435
:1046840005F9E43AFA90B474EBF0A3EAF0A3E9F084
:104694007B017AB8796102479490B46EE0FBA3E0A1
:1046A400FAA3E02405F9E43AFA90B474EBF0A3EA2F
:0E46B400F0A3E9F07B017AB8796612539022E8
:090D6A0041B8FF0042B8FD000091
:0829CE0090B46EEEF0A3EFF0EF
:1029D600A37411F0A37422F0E4A3F0A3F0A3F0A370
:1029E600F0A3F0A3F07E0190B46EE0FCA3E0FD90AE
:1029F600B8FDE0B5040EA3E0B50509A3E070161E08
:102A060004F08011E4FE90B46EE0FDA3E090B8FD02
:102A1600CDF0A3EDF0EE6003022BF990B46EE0FC6E
:102A2600A3E0FFD39408EC9400400990B46EE4F060
:102A3600A37408F0E490B476F0A3F090B476E0FACC
:102A4600A3E0FB90B471E02BFE90B470E03A90B432
:102A560074F0A3CEF0EA6003022BB1EBB408004099
:102A660003022BB1902A71F8282873022A89022AB8
:102A7600AE022AD3022AF8022B1D022B41022B6535
:102A8600022B8990B46EE0FEA3E0FFC390B477E01A
:102A96009F90B476E09E500590B8D4800390B8D14C
:102AA600E0FEA3E0FF022BAB90B46EE0FEA3E0FFD6
:102AB600C390B477E09F90B476E09E500590B8D46A
:102AC600800390B8D1E0FEA3E0FF022BAB90B46E7A
:102AD600E0FEA3E0FFC390B477E09F90B476E09E5B
:102AE600500590B8D4800390B8D1E0FEA3E0FF0271
:102AF6002BAB90B46EE0FEA3E0FFC390B477E09FEB
:102B060090B476E09E500590B8D4800390B8D1E09A
:102B1600FEA3E0FF022BAB90B46EE0FEA3E0FFC382
:102B260090B477E09F90B476E09E500590B8D4803C
:102B36000390B8D1E0FEA3E0FF806A90B46EE0FE99
:102B4600A3E0FFC390B477E09F90B476E09E500573
:102B560090B8D4800390B8D1E0FEA3E0FF80469001
:102B6600B46EE0FEA3E0FFC390B477E09F90B47626
:102B7600E09E500590B8D4800390B8D1E0FEA3E063
:102B8600FF802290B46EE0FEA3E0FFC390B477E02E
:102B96009F90B476E09E500590B8D4800390B8D14B
:102BA600E0FEA3E0FF90B472EE800B90B8D1E0FF98
:102BB600A3E090B472CFF0A3EFF090B474E0FEA35C
:102BC600E0FF7B017AB4797290B47DE4F0A304F05F
:102BD600123A2A90B477E004F0700690B476E004D6
:102BE600F0C390B477E0940890B476E09400500374
:032BF600022A416F
:012BF90022B9
:0D5C900090B8D3E0FF7E001229CE023D291E
:100D73004EB8680000000000000000000000000002
:010D8300006F
:103D290090B825E0FF7E0090B868E07003A3E06FCB
:103D3900601D90B868EEF0A3EFF07B017AB879685E
:103D490090B47DE4F0A304F07F337E11123A2A90F7
:103D5900B86AE0FEA3E0FF90B826E0FCA3E0FD6F9F
:103D69007002EC6E601E90B86AECF0A3EDF07B0176
:103D79007AB8796A90B47DE4F0A37402F07F347E56
:103D890011123A2A90B86CE0FEA3E0FF90B837E030
:103D9900FCA3E0FD6F7002EC6E601E90B86CECF055
:103DA900A3EDF07B017AB8796C90B47DE4F0A3744B
:103DB90002F07F357E11123A2A90B86EE0FEA3E038
:103DC900FF90B85AE0FCA3E0FD6F7002EC6E601E34
:103DD90090B86EECF0A3EDF07B017AB8796E90B4EF
:103DE9007DE4F0A37402F07F377E11123A2A90B86D
:103DF90070E0FEA3E0FF90B85CE0FCA3E0FD6F700B
:103E090002EC6E601E90B870ECF0A3EDF07B017AC5
:103E1900B8797090B47DE4F0A37402F07F437E1109
:103E2900123A2A90B861E0FF7E0090B872E0700300
:103E3900A3E06F601E90B872EEF0A3EFF07B017AF9
:103E4900B8797290B47DE4F0A37402F07F397E11E1
:103E5900123A2A90B874E0FEA3E0FF90B866E0FC3D
:103E6900A3E0FD6F7002EC6E601E90B874ECF0A3D5
:103E7900EDF07B017AB8797490B47DE4F0A3740213
:093E8900F07F417E11123A2A2259
:10010000EC4D6011E8497017ED33EC3304600DE4F9
:10011000FCFFFEFD22E933E8330470F80202B0125E
:10012000027B58046009E4CC24815006285009025F
:1001300002BA2840030202B7C0E0EB4A7044B9801B
:1001400006D0E0FB0202A6EF4E701CBD8008EBFF5C
:10015000EAFEE9FD80EBE98DF0A4FEE5F00201E99D
:10016000E9CDF9EAFEEBFFEF89F0A4FCE5F0CE89DA
:10017000F0A42EFFE435F0CD89F0A42DFEE435F097
:100180008067EF4E7005BD80D780C3EF8BF0A4ACC5
:10019000F0EE8BF0A42CFCE435F0F8EF8AF0A42C00
:1001A000E5F038FCE433CB8DF0A42CFCE5F03BF813
:1001B000EE8AF0A42CFCE5F038F8E433CF89F0A403
:1001C0002CFCE5F038CF3400CE89F0A42FFFE5F009
:1001D0003EFEE433C98DF0A42EFEE5F039CD8AF061
:1001E000A42FFFE5F03EFEE43DFD33D0E0FB5007D9
:1001F0000BBB000F0202BAEC2CFCEF33FFEE33FE18
:06020000ED33FD02029245
:1002060075F020800E75F010800575F0087D007E73
:10021600007F003392D530D503120725EC3340100A
:10022600EF33FFEE33FEED33FDEC33FCD5F0ED227C
:0E023600E5F0247EA2D513CC92E7CDCEFF22B8
:10024400EDD2E7CD33EC3392D524814006E4FFFEB2
:10025400FDFC22FCE4CFCECDCC24E0501174FF8011
:10026400EDC3CC13CCCD13CDCE13CECF13CF0470AE
:07027400F030D5DE02072582
:10027B00E9D2E7C933E833F892D5EDD2E7CD33ECC9
:07028B0033FC5002B2D52242
:10029200EC30E7100FBF000C0EBE00080DBD0004CD
:1002A2000BEB6014A2D5EB13FCED92E7FD2274FF79
:1002B200FCFDFEFF22E480F8A2D574FF13FC7D80D2
:0302C200E480EFE6
:1048A200025CB4E493A3F8E493A34003F68001F21C
:1048B20008DFF48029E493A3F85407240CC8C33317
:1048C200C4540F4420C8834004F456800146F6DFE6
:1048D200E4800B01020408102040809008C3E47EAB
:1048E200019360BCA3FF543F30E509541FFEE493DB
:1048F200A360010ECF54C025E060A840B8E493A3A2
:10490200FAE493A3F8E493A3C8C582C8CAC583CACC
:10491200F0A3C8C582C8CAC583CADFE9DEE780BE84
:010D8400006E
:1002C500E709F608DFFA8046E709F208DFFA803E1B
:1002D50088828C83E709F0A3DFFA8032E309F60808
:1002E500DFFA8078E309F208DFFA807088828C8370
:1002F500E309F0A3DFFA806489828A83E0A3F60824
:10030500DFFA805889828A83E0A3F208DFFA804CFD
:1003150080D280FA80C680D4806980F280338010D4
:1003250080A680EA809A80A880DA80E280CA80333D
:1003350089828A83ECFAE493A3C8C582C8CCC583B5
:10034500CCF0A3C8C582C8CCC583CCDFE9DEE78085
:100355000D89828A83E493A3F608DFF9ECFAA9F004
:10036500EDFB2289828A83ECFAE0A3C8C582C8CC5A
:10037500C583CCF0A3C8C582C8CCC583CCDFEADE73
:10038500E880DB89828A83E493A3F208DFF980CCD5
:1003950088F0EF60010E4E60C388F0ED2402B404CE
:1003A5000050B9F582EB2402B4040050AF23234575
:0603B50082239003157382
:1003BB00BB010689828A83E0225002E722BBFE0240
:0903CB00E32289828A83E4932273
:1003D400BB010CE58229F582E5833AF583E02250DE
:1003E40006E92582F8E622BBFE06E92582F8E22228
:0D03F400E58229F582E5833AF583E4932242
:10040100BB0111F8E58229F582E5833AF583E0C85D
:1004110028F0E8225009C58229F8C58226C622BBE8
:10042100FE0DC58229F8E2C5822582F2E58222EA23
:070431002583F583E9932206
:10043800BB010989828A83F8E028F022500327F754
:1004480022BBFE05F8E328F3228A838982F8E49325
:02045800282258
:10045A00BB010689828A83F0225002F722BBFE0181
:02046A00F3227B
:10046C00F8BB010DE58229F582E5833AF583E8F0C6
:10047C00225006E92582C8F622BBFE05E92582C872
:02048C00F2225A
:10048E00BC000BBE0029EF8DF084FFADF022E4CC52
:10049E00F875F008EF2FFFEE33FEEC33FCEE9DEC1B
:1004AE00984005FCEE9DFE0FD5F0E9E4CEFD22ED61
:1004BE00F8F5F0EE8420D21CFEADF075F008EF2FAB
:1004CE00FFED33FD4007985006D5F0F222C398FD9C
:0504DE000FD5F0EA2239
:1004E300C5F0F8A3E028F0C5F0F8E58215827002A4
:0604F3001583E038F02241
:1004F900A3F8E0C5F025F0F0E582158270021583B6
:06050900E0C838F0E82212
:10050F00BB010A89828A83E0F5F0A3E022500687B7
:10051F00F009E71922BBFE07E3F5F009E319228979
:0B052F00828A83E493F5F074019322AC
:10053A00BB0110E58229F582E5833AF583E0F5F0FF
:10054A00A3E0225009E92582F886F008E622BBFEDC
:10055A000AE92582F8E2F5F008E222E5832AF58322
:08056A00E993F5F0A3E99322E7
:10057200BB010FF8E58229F582E5833AF583E802AB
:1005820004F95011C58229F808C5F026C6F5F018FD
